:100000000C945B000C94B9010C94D6010C94830001
:100010000C9483000C9483000C9483000C94830054
:100020000C9483000C9483000C9483000C94830044
:100030000C9483000C9483000C9483000C94830034
:100040000C948E030C9483000C9451030C94830045
:100050000C9483000C9483000C9483000C94830014
:100060000C9483000C948300000024272A000025B0
:10007000282B000023262904040404040404040299
:100080000202020202030303030303010204081035
:100090002040800102040810200102040810200002
:1000A0000000070002010000030406000000000039
:1000B00000000000000311241FBECFEFD4E0DEBF1C
:1000C000CDBF11E0A0E0B1E0E4E6F9E002C00590A8
:1000D0000D92A630B107D9F711E0A6E0B1E001C05A
:1000E0001D92AC39B107E1F710E0C6EBD0E004C0D7
:1000F0002297FE010E94AC04C43BD107C9F70E94BD
:10010000B2010C94B0040C9400001F93182F61E00E
:100110000E94F30160E0812F0E9411021F91089557
:100120001F93182F60E00E94F30161E0812F0E946D
:1001300011021F9108950F931F93CF93DF9383E0D4
:1001400090E00E94900082E090E00E94900082E3A4
:1001500090E00E94FE0383E00E945C020197D9F3C5
:1001600085E090E00E94FE0383E00E945C02892B00
:10017000D9F300E0C0E0D0E011E083E00E945C022F
:100180000197D9F382E00E945C02019709F4012BE8
:1001900083E00E945C02892BD9F32196C830D105F7
:1001A00011F0110FEACF83E00E945C020197D9F3AE
:1001B00083E00E945C02892BD9F383E00E945C02F9
:1001C0000197D9F383E00E945C02892BD9F383E085
:1001D00090E00E948500802FDF91CF911F910F91B9
:1001E0000895FF920F931F93CF93DF93F82E82E031
:1001F00090E00E94900083E090E00E9490008CE2EA
:1002000091E00E94FE0383E090E00E9485008CE272
:1002100091E00E94FE0382E090E00E9485008AE067
:1002200090E00E94FE0383E090E00E94900083E053
:100230000E945C020197D9F300E011E0CF2DDD2789
:10024000C7FDD095C0FF05C082E090E00E949000FD
:1002500004C082E090E00E94850083E00E945C027E
:10026000892BD9F383E00E945C020197D9F381E0E6
:10027000F8221F250F5F083021F0D595C795FC2E79
:10028000DDCF112329F082E090E00E94900004C0AD
:1002900082E090E00E94850083E00E945C02892B4E
:1002A000D9F383E00E945C020197D9F382E090E0E9
:1002B0000E94900082E390E00E94FE0383E00E948F
:1002C0005C020197D9F383E00E945C02892BD9F389
:1002D00082E00E945C02892BB1F383E090E00E94EF
:1002E0008500DF91CF911F910F91FF9008958BEEC4
:1002F0000E94F1000E949B000E949B000E949B00B4
:100300000E949B0087FD8095682F772767FD709579
:1003100089E00E94A802089583E090E00E94900086
:1003200082E090E00E9490008FEF0E94F1000E9416
:100330009B000E949B000E949B0080EF0E94F100A6
:100340000E949B0084E690E00E94FE03089540E82E
:1003500055E260E070E08AE091E00E940B030E94A9
:100360008C0108950E940C040E94A7010E9477014D
:10037000FDCF1F920F920FB60F9211248F939F9370
:10038000EF93FF938091060190910701892B29F04B
:10039000E0910601F09107010995FF91EF919F917E
:1003A0008F910F900FBE0F901F9018951F920F9274
:1003B0000FB60F9211248F939F93EF93FF93809129
:1003C000080190910901892B29F0E0910801F09131
:1003D00009010995FF91EF919F918F910F900FBEA9
:1003E0000F901F901895282F30E0C90185579F4F17
:1003F000FC01949129583F4FF9018491882381F0A1
:10040000E82FF0E0E859FF4FE491F0E0662329F48B
:10041000808190958923808308958081892B8083B2
:100420000895482F50E0CA0181569F4FFC01249146
:10043000CA0185579F4FFC01949149585F4FFA01BB
:1004400034913323C1F1222331F1233021F48091FF
:1004500080008F7705C0243031F4809180008F7D3B
:100460008093800018C0213019F484B58F7704C0C0
:10047000223021F484B58F7D84BD0DC0263021F457
:100480008091B0008F7705C0273029F48091B000AB
:100490008F7D8093B000E32FF0E0E359FF4FE491AC
:1004A000F0E0662329F48081909589238083089564
:1004B0008081892B80830895482F50E0CA0181569E
:1004C0009F4FFC012491CA0185579F4FFC019491D5
:1004D00049585F4FFA013491332319F420E030E09A
:1004E00035C0222331F1233021F4809180008F77B1
:1004F00005C0243031F4809180008F7D809380008E
:1005000018C0213019F484B58F7704C0223021F44B
:1005100084B58F7D84BD0DC0263021F48091B0005C
:100520008F7705C0273029F48091B0008F7D8093AC
:10053000B000E32FF0E0EE58FF4FE491F0E080814F
:1005400020E030E0892311F021E030E0C901089576
:100550001F93CF93DF93182FEB0161E00E94F3010B
:10056000E12FF0E0E156FF4F8491833051F4809108
:100570008000806880938000D0938900C0938800B9
:100580003BC0843051F48091800080628093800071
:10059000D0938B00C0938A002FC0813039F420970C
:1005A00029F184B5806884BDC7BD26C0823039F486
:1005B0002097E1F084B5806284BDC8BD1DC086303F
:1005C00041F48091B00080688093B000C093B30084
:1005D00013C0873041F48091B00080628093B000F6
:1005E000C093B40009C0C038D10514F460E001C064
:1005F00061E0812F0E941102DF91CF911F91089538
:1006000084E091E090930B0180930A010895862F76
:100610000E9449030895CB01BA010E941003089576
:10062000EF92FF920F931F937B018C0122E030E049
:1006300040E050E00E947B04205C3D4B404F5F4F08
:10064000CA01B901A80197010E947B04C901DA011E
:100650000197A109B109292F3A2F4B2F552747FDA3
:100660005A950196A11DB11D2093C500815080931C
:10067000C400E1ECF0E0808180618083808188604B
:1006800080838081806880831F910F91FF90EF901D
:100690000895982F8091C00085FFFCCF9093C600ED
:1006A00008951F920F920FB60F9211242F933F932C
:1006B0004F935F936F937F938F939F93AF93BF936A
:1006C000EF93FF934091C600E0910C01F0910D0172
:1006D000CF01019660E870E00E9446049C01809181
:1006E0000E0190910F012817390739F0E45EFE4F93
:1006F000408330930D0120930C01FF91EF91BF9146
:10070000AF919F918F917F916F915F914F913F91A9
:100710002F910F900FBE0F901F9018951F920F9260
:100720000FB60F9211242F938F939F93AF93BF9384
:100730008091100190911101A0911201B0911301CB
:100740000196A11DB11D8093100190931101A093FA
:100750001201B09313018091140190911501A091A1
:100760001601B09117018050904CAF4FBF4F80934E
:10077000140190931501A0931601B093170127C09F
:100780008091140190911501A0911601B09117016B
:1007900080589E43A040B04080931401909315016F
:1007A000A0931601B093170180911801909119013F
:1007B000A0911A01B0911B010196A11DB11D80935A
:1007C000180190931901A0931A01B0931B01809115
:1007D000140190911501A0911601B0911701815853
:1007E0009E43A040B04060F6BF91AF919F918F9122
:1007F0002F910F900FBE0F901F901895019759F0F1
:10080000FC01EE0FFF1FEE0FFF1F32978FB7F8941A
:100810003197F1F78FBF0895789484B5826084BDD5
:1008200084B5816084BD85B5826085BD85B58160F4
:1008300085BDEEE6F0E0808181608083E1E8F0E054
:10084000808182608083808181608083E0E8F0E045
:10085000808181608083E1EBF0E08081846080832F
:10086000E0EBF0E0808181608083EAE7F0E0808166
:1008700084608083808182608083808181608083C6
:100880008081806880831092C100089597FB092EB3
:1008900007260AD077FD04D049D006D000201AF4EC
:1008A000709561957F4F0895F6F7909581959F4FCC
:1008B0000895A1E21A2EAA1BBB1BFD010DC0AA1FA1
:1008C000BB1FEE1FFF1FA217B307E407F50720F0B9
:1008D000A21BB30BE40BF50B661F771F881F991F34
:1008E0001A9469F760957095809590959B01AC017D
:1008F000BD01CF01089597FB092E05260ED057FDA7
:1009000004D0D7DF0AD0001C38F4509540953095BC
:1009100021953F4F4F4F5F4F0895F6F79095809583
:10092000709561957F4F8F4F9F4F0895AA1BBB1BFA
:1009300051E107C0AA1FBB1FA617B70710F0A61BDF
:10094000B70B881F991F5A95A9F780959095BC0100
:10095000CD010895EE0FFF1F0590F491E02D09944D
:04096000F894FFCF39
:0609640000000000070383
:00000001FF
